{
  "_format": "hh-sol-artifact-1",
  "contractName": "NFT",
  "sourceName": "src/backend/contracts/NFT.sol",
  "abi": [
    {
      "inputs": [],
      "stateMutability": "nonpayable",
      "type": "constructor"
    },
    {
      "inputs": [],
      "name": "ApprovalCallerNotOwnerNorApproved",
      "type": "error"
    },
    {
      "inputs": [],
      "name": "ApprovalQueryForNonexistentToken",
      "type": "error"
    },
    {
      "inputs": [],
      "name": "ApproveToCaller",
      "type": "error"
    },
    {
      "inputs": [],
      "name": "BalanceQueryForZeroAddress",
      "type": "error"
    },
    {
      "inputs": [],
      "name": "MintERC2309QuantityExceedsLimit",
      "type": "error"
    },
    {
      "inputs": [],
      "name": "MintToZeroAddress",
      "type": "error"
    },
    {
      "inputs": [],
      "name": "MintZeroQuantity",
      "type": "error"
    },
    {
      "inputs": [
        {
          "internalType": "address",
          "name": "operator",
          "type": "address"
        }
      ],
      "name": "OperatorNotAllowed",
      "type": "error"
    },
    {
      "inputs": [],
      "name": "OwnerQueryForNonexistentToken",
      "type": "error"
    },
    {
      "inputs": [],
      "name": "OwnershipNotInitializedForExtraData",
      "type": "error"
    },
    {
      "inputs": [],
      "name": "TransferCallerNotOwnerNorApproved",
      "type": "error"
    },
    {
      "inputs": [],
      "name": "TransferFromIncorrectOwner",
      "type": "error"
    },
    {
      "inputs": [],
      "name": "TransferToNonERC721ReceiverImplementer",
      "type": "error"
    },
    {
      "inputs": [],
      "name": "TransferToZeroAddress",
      "type": "error"
    },
    {
      "inputs": [],
      "name": "URIQueryForNonexistentToken",
      "type": "error"
    },
    {
      "anonymous": false,
      "inputs": [
        {
          "indexed": true,
          "internalType": "address",
          "name": "owner",
          "type": "address"
        },
        {
          "indexed": true,
          "internalType": "address",
          "name": "approved",
          "type": "address"
        },
        {
          "indexed": true,
          "internalType": "uint256",
          "name": "tokenId",
          "type": "uint256"
        }
      ],
      "name": "Approval",
      "type": "event"
    },
    {
      "anonymous": false,
      "inputs": [
        {
          "indexed": true,
          "internalType": "address",
          "name": "owner",
          "type": "address"
        },
        {
          "indexed": true,
          "internalType": "address",
          "name": "operator",
          "type": "address"
        },
        {
          "indexed": false,
          "internalType": "bool",
          "name": "approved",
          "type": "bool"
        }
      ],
      "name": "ApprovalForAll",
      "type": "event"
    },
    {
      "anonymous": false,
      "inputs": [
        {
          "indexed": true,
          "internalType": "uint256",
          "name": "fromTokenId",
          "type": "uint256"
        },
        {
          "indexed": false,
          "internalType": "uint256",
          "name": "toTokenId",
          "type": "uint256"
        },
        {
          "indexed": true,
          "internalType": "address",
          "name": "from",
          "type": "address"
        },
        {
          "indexed": true,
          "internalType": "address",
          "name": "to",
          "type": "address"
        }
      ],
      "name": "ConsecutiveTransfer",
      "type": "event"
    },
    {
      "anonymous": false,
      "inputs": [
        {
          "indexed": false,
          "internalType": "address",
          "name": "user",
          "type": "address"
        }
      ],
      "name": "MintSuccessful",
      "type": "event"
    },
    {
      "anonymous": false,
      "inputs": [
        {
          "indexed": true,
          "internalType": "address",
          "name": "previousOwner",
          "type": "address"
        },
        {
          "indexed": true,
          "internalType": "address",
          "name": "newOwner",
          "type": "address"
        }
      ],
      "name": "OwnershipTransferred",
      "type": "event"
    },
    {
      "anonymous": false,
      "inputs": [
        {
          "indexed": true,
          "internalType": "address",
          "name": "from",
          "type": "address"
        },
        {
          "indexed": true,
          "internalType": "address",
          "name": "to",
          "type": "address"
        },
        {
          "indexed": true,
          "internalType": "uint256",
          "name": "tokenId",
          "type": "uint256"
        }
      ],
      "name": "Transfer",
      "type": "event"
    },
    {
      "inputs": [],
      "name": "amountMintPerAccount",
      "outputs": [
        {
          "internalType": "uint256",
          "name": "",
          "type": "uint256"
        }
      ],
      "stateMutability": "view",
      "type": "function"
    },
    {
      "inputs": [
        {
          "internalType": "address",
          "name": "to",
          "type": "address"
        },
        {
          "internalType": "uint256",
          "name": "tokenId",
          "type": "uint256"
        }
      ],
      "name": "approve",
      "outputs": [],
      "stateMutability": "nonpayable",
      "type": "function"
    },
    {
      "inputs": [
        {
          "internalType": "address",
          "name": "owner",
          "type": "address"
        }
      ],
      "name": "balanceOf",
      "outputs": [
        {
          "internalType": "uint256",
          "name": "",
          "type": "uint256"
        }
      ],
      "stateMutability": "view",
      "type": "function"
    },
    {
      "inputs": [],
      "name": "baseTokenURI",
      "outputs": [
        {
          "internalType": "string",
          "name": "",
          "type": "string"
        }
      ],
      "stateMutability": "view",
      "type": "function"
    },
    {
      "inputs": [],
      "name": "burnAmount",
      "outputs": [
        {
          "internalType": "uint256",
          "name": "",
          "type": "uint256"
        }
      ],
      "stateMutability": "view",
      "type": "function"
    },
    {
      "inputs": [],
      "name": "contractURI",
      "outputs": [
        {
          "internalType": "string",
          "name": "",
          "type": "string"
        }
      ],
      "stateMutability": "pure",
      "type": "function"
    },
    {
      "inputs": [
        {
          "internalType": "uint256",
          "name": "tokenId",
          "type": "uint256"
        }
      ],
      "name": "getApproved",
      "outputs": [
        {
          "internalType": "address",
          "name": "",
          "type": "address"
        }
      ],
      "stateMutability": "view",
      "type": "function"
    },
    {
      "inputs": [],
      "name": "getPrice",
      "outputs": [
        {
          "internalType": "uint256",
          "name": "",
          "type": "uint256"
        }
      ],
      "stateMutability": "view",
      "type": "function"
    },
    {
      "inputs": [
        {
          "internalType": "address",
          "name": "owner",
          "type": "address"
        },
        {
          "internalType": "address",
          "name": "operator",
          "type": "address"
        }
      ],
      "name": "isApprovedForAll",
      "outputs": [
        {
          "internalType": "bool",
          "name": "",
          "type": "bool"
        }
      ],
      "stateMutability": "view",
      "type": "function"
    },
    {
      "inputs": [],
      "name": "max_supply",
      "outputs": [
        {
          "internalType": "uint256",
          "name": "",
          "type": "uint256"
        }
      ],
      "stateMutability": "view",
      "type": "function"
    },
    {
      "inputs": [
        {
          "internalType": "uint256",
          "name": "quantity",
          "type": "uint256"
        }
      ],
      "name": "mint",
      "outputs": [],
      "stateMutability": "payable",
      "type": "function"
    },
    {
      "inputs": [],
      "name": "mintEnabled",
      "outputs": [
        {
          "internalType": "bool",
          "name": "",
          "type": "bool"
        }
      ],
      "stateMutability": "view",
      "type": "function"
    },
    {
      "inputs": [],
      "name": "name",
      "outputs": [
        {
          "internalType": "string",
          "name": "",
          "type": "string"
        }
      ],
      "stateMutability": "view",
      "type": "function"
    },
    {
      "inputs": [],
      "name": "owner",
      "outputs": [
        {
          "internalType": "address",
          "name": "",
          "type": "address"
        }
      ],
      "stateMutability": "view",
      "type": "function"
    },
    {
      "inputs": [
        {
          "internalType": "uint256",
          "name": "tokenId",
          "type": "uint256"
        }
      ],
      "name": "ownerOf",
      "outputs": [
        {
          "internalType": "address",
          "name": "",
          "type": "address"
        }
      ],
      "stateMutability": "view",
      "type": "function"
    },
    {
      "inputs": [],
      "name": "price",
      "outputs": [
        {
          "internalType": "uint256",
          "name": "",
          "type": "uint256"
        }
      ],
      "stateMutability": "view",
      "type": "function"
    },
    {
      "inputs": [],
      "name": "renounceOwnership",
      "outputs": [],
      "stateMutability": "nonpayable",
      "type": "function"
    },
    {
      "inputs": [],
      "name": "revealed",
      "outputs": [
        {
          "internalType": "bool",
          "name": "",
          "type": "bool"
        }
      ],
      "stateMutability": "view",
      "type": "function"
    },
    {
      "inputs": [
        {
          "internalType": "address",
          "name": "from",
          "type": "address"
        },
        {
          "internalType": "address",
          "name": "to",
          "type": "address"
        },
        {
          "internalType": "uint256",
          "name": "tokenId",
          "type": "uint256"
        }
      ],
      "name": "safeTransferFrom",
      "outputs": [],
      "stateMutability": "nonpayable",
      "type": "function"
    },
    {
      "inputs": [
        {
          "internalType": "address",
          "name": "from",
          "type": "address"
        },
        {
          "internalType": "address",
          "name": "to",
          "type": "address"
        },
        {
          "internalType": "uint256",
          "name": "tokenId",
          "type": "uint256"
        },
        {
          "internalType": "bytes",
          "name": "data",
          "type": "bytes"
        }
      ],
      "name": "safeTransferFrom",
      "outputs": [],
      "stateMutability": "nonpayable",
      "type": "function"
    },
    {
      "inputs": [
        {
          "internalType": "uint256",
          "name": "_amountMintPerAccount",
          "type": "uint256"
        }
      ],
      "name": "setAmountMintPerAccount",
      "outputs": [],
      "stateMutability": "nonpayable",
      "type": "function"
    },
    {
      "inputs": [
        {
          "internalType": "address",
          "name": "operator",
          "type": "address"
        },
        {
          "internalType": "bool",
          "name": "approved",
          "type": "bool"
        }
      ],
      "name": "setApprovalForAll",
      "outputs": [],
      "stateMutability": "nonpayable",
      "type": "function"
    },
    {
      "inputs": [
        {
          "internalType": "bool",
          "name": "_state",
          "type": "bool"
        }
      ],
      "name": "setMintEnabled",
      "outputs": [],
      "stateMutability": "nonpayable",
      "type": "function"
    },
    {
      "inputs": [
        {
          "internalType": "uint256",
          "name": "_price",
          "type": "uint256"
        }
      ],
      "name": "setPrice",
      "outputs": [],
      "stateMutability": "nonpayable",
      "type": "function"
    },
    {
      "inputs": [
        {
          "internalType": "bool",
          "name": "_revealed",
          "type": "bool"
        }
      ],
      "name": "setRevealed",
      "outputs": [],
      "stateMutability": "nonpayable",
      "type": "function"
    },
    {
      "inputs": [
        {
          "internalType": "bytes4",
          "name": "interfaceId",
          "type": "bytes4"
        }
      ],
      "name": "supportsInterface",
      "outputs": [
        {
          "internalType": "bool",
          "name": "",
          "type": "bool"
        }
      ],
      "stateMutability": "view",
      "type": "function"
    },
    {
      "inputs": [],
      "name": "symbol",
      "outputs": [
        {
          "internalType": "string",
          "name": "",
          "type": "string"
        }
      ],
      "stateMutability": "view",
      "type": "function"
    },
    {
      "inputs": [
        {
          "internalType": "uint256",
          "name": "_tokenId",
          "type": "uint256"
        }
      ],
      "name": "tokenURI",
      "outputs": [
        {
          "internalType": "string",
          "name": "",
          "type": "string"
        }
      ],
      "stateMutability": "view",
      "type": "function"
    },
    {
      "inputs": [],
      "name": "totalSupply",
      "outputs": [
        {
          "internalType": "uint256",
          "name": "",
          "type": "uint256"
        }
      ],
      "stateMutability": "view",
      "type": "function"
    },
    {
      "inputs": [
        {
          "internalType": "address",
          "name": "from",
          "type": "address"
        },
        {
          "internalType": "address",
          "name": "to",
          "type": "address"
        },
        {
          "internalType": "uint256",
          "name": "tokenId",
          "type": "uint256"
        }
      ],
      "name": "transferFrom",
      "outputs": [],
      "stateMutability": "nonpayable",
      "type": "function"
    },
    {
      "inputs": [
        {
          "internalType": "address",
          "name": "newOwner",
          "type": "address"
        }
      ],
      "name": "transferOwnership",
      "outputs": [],
      "stateMutability": "nonpayable",
      "type": "function"
    },
    {
      "inputs": [],
      "name": "uriPrefix",
      "outputs": [
        {
          "internalType": "string",
          "name": "",
          "type": "string"
        }
      ],
      "stateMutability": "view",
      "type": "function"
    },
    {
      "inputs": [],
      "name": "uriSuffix",
      "outputs": [
        {
          "internalType": "string",
          "name": "",
          "type": "string"
        }
      ],
      "stateMutability": "view",
      "type": "function"
    },
    {
      "inputs": [],
      "name": "withdraw",
      "outputs": [],
      "stateMutability": "nonpayable",
      "type": "function"
    }
  ],
  "bytecode": "0x608060405260405180602001604052806000815250600990805190602001906200002b929190620006d2565b506040518060400160405280600581526020017f2e6a736f6e000000000000000000000000000000000000000000000000000000815250600a908051906020019062000079929190620006d2565b5061115c600b556002600d556000600f553480156200009757600080fd5b50733cc6cdda760b79bafa08df41ecfa224f810dceb660016040518060400160405280600d81526020017f426c6f636b2042656767617273000000000000000000000000000000000000008152506040518060400160405280600381526020017f42454700000000000000000000000000000000000000000000000000000000008152506200013b6200012f6200039560201b60201c565b6200039d60201b60201c565b816003908051906020019062000153929190620006d2565b5080600490805190602001906200016c929190620006d2565b506200017d6200046160201b60201c565b600181905550505060006daaeb6d7670e522a718067333cd4e73ffffffffffffffffffffffffffffffffffffffff163b11156200037a57801562000240576daaeb6d7670e522a718067333cd4e73ffffffffffffffffffffffffffffffffffffffff16637d3e3dbe30846040518363ffffffff1660e01b815260040162000206929190620007c7565b600060405180830381600087803b1580156200022157600080fd5b505af115801562000236573d6000803e3d6000fd5b5050505062000379565b600073ffffffffffffffffffffffffffffffffffffffff168273ffffffffffffffffffffffffffffffffffffffff1614620002fa576daaeb6d7670e522a718067333cd4e73ffffffffffffffffffffffffffffffffffffffff1663a0af290330846040518363ffffffff1660e01b8152600401620002c0929190620007c7565b600060405180830381600087803b158015620002db57600080fd5b505af1158015620002f0573d6000803e3d6000fd5b5050505062000378565b6daaeb6d7670e522a718067333cd4e73ffffffffffffffffffffffffffffffffffffffff16634420e486306040518263ffffffff1660e01b8152600401620003439190620007f4565b600060405180830381600087803b1580156200035e57600080fd5b505af115801562000373573d6000803e3d6000fd5b505050505b5b5b50506200038f3360de6200046a60201b60201c565b62000875565b600033905090565b60008060009054906101000a900473ffffffffffffffffffffffffffffffffffffffff169050816000806101000a81548173ffffffffffffffffffffffffffffffffffffffff021916908373ffffffffffffffffffffffffffffffffffffffff1602179055508173ffffffffffffffffffffffffffffffffffffffff168173ffffffffffffffffffffffffffffffffffffffff167f8be0079c531659141344cd1fd0a4f28419497f9722a3daafe3b4186f6b6457e060405160405180910390a35050565b60006001905090565b6000600154905060008203620004ac576040517fb562e8dd00000000000000000000000000000000000000000000000000000000815260040160405180910390fd5b620004c160008483856200065260201b60201c565b600160406001901b178202600660008573ffffffffffffffffffffffffffffffffffffffff1673ffffffffffffffffffffffffffffffffffffffff1681526020019081526020016000206000828254019250508190555062000550836200053260008660006200065860201b60201c565b62000543856200068860201b60201c565b176200069860201b60201c565b6005600083815260200190815260200160002081905550600080838301905073ffffffffffffffffffffffffffffffffffffffff85169150828260007fddf252ad1be2c89b69c2b068fc378daa952ba7f163c4a11628f55a4df523b3ef600080a4600183015b818114620005f357808360007fddf252ad1be2c89b69c2b068fc378daa952ba7f163c4a11628f55a4df523b3ef600080a4600181019050620005b6565b50600082036200062f576040517f2e07630000000000000000000000000000000000000000000000000000000000815260040160405180910390fd5b8060018190555050506200064d6000848385620006c360201b60201c565b505050565b50505050565b60008060e883901c905060e862000677868684620006c960201b60201c565b62ffffff16901b9150509392505050565b60006001821460e11b9050919050565b600073ffffffffffffffffffffffffffffffffffffffff83169250814260a01b178317905092915050565b50505050565b60009392505050565b828054620006e09062000840565b90600052602060002090601f01602090048101928262000704576000855562000750565b82601f106200071f57805160ff191683800117855562000750565b8280016001018555821562000750579182015b828111156200074f57825182559160200191906001019062000732565b5b5090506200075f919062000763565b5090565b5b808211156200077e57600081600090555060010162000764565b5090565b600073ffffffffffffffffffffffffffffffffffffffff82169050919050565b6000620007af8262000782565b9050919050565b620007c181620007a2565b82525050565b6000604082019050620007de6000830185620007b6565b620007ed6020830184620007b6565b9392505050565b60006020820190506200080b6000830184620007b6565b92915050565b7f4e487b7100000000000000000000000000000000000000000000000000000000600052602260045260246000fd5b600060028204905060018216806200085957607f821691505b6020821081036200086f576200086e62000811565b5b50919050565b6133ec80620008856000396000f3fe6080604052600436106101f95760003560e01c80638da5cb5b1161010d578063b88d4fde116100a0578063e0a808531161006f578063e0a80853146106f2578063e8a3d4851461071b578063e985e9c514610746578063f2fde38b14610783578063f46a04eb146107ac576101f9565b8063b88d4fde14610636578063c87b56dd1461065f578063d12397301461069c578063d547cfb7146106c7576101f9565b8063a035b1fe116100dc578063a035b1fe1461059b578063a0712d68146105c6578063a22cb465146105e2578063a827b5ff1461060b576101f9565b80638da5cb5b146104f157806391b7f5ed1461051c57806395d89b411461054557806398d5fdca14610570576101f9565b806342842e0e1161019057806362b99ad41161015f57806362b99ad41461040a5780636352211e1461043557806370a0823114610472578063715018a6146104af5780638a333b50146104c6576101f9565b806342842e0e14610360578063486a7e6b1461038957806351830227146103b45780635503a0e8146103df576101f9565b806311296660116101cc57806311296660146102cc57806318160ddd146102f557806323b872dd146103205780633ccfd60b14610349576101f9565b806301ffc9a7146101fe57806306fdde031461023b578063081812fc14610266578063095ea7b3146102a3575b600080fd5b34801561020a57600080fd5b5061022560048036038101906102209190612642565b6107d5565b604051610232919061268a565b60405180910390f35b34801561024757600080fd5b50610250610867565b60405161025d919061273e565b60405180910390f35b34801561027257600080fd5b5061028d60048036038101906102889190612796565b6108f9565b60405161029a9190612804565b60405180910390f35b3480156102af57600080fd5b506102ca60048036038101906102c5919061284b565b610978565b005b3480156102d857600080fd5b506102f360048036038101906102ee9190612796565b610abc565b005b34801561030157600080fd5b5061030a610ace565b604051610317919061289a565b60405180910390f35b34801561032c57600080fd5b50610347600480360381019061034291906128b5565b610ae5565b005b34801561035557600080fd5b5061035e610cc7565b005b34801561036c57600080fd5b50610387600480360381019061038291906128b5565b610d18565b005b34801561039557600080fd5b5061039e610efa565b6040516103ab919061289a565b60405180910390f35b3480156103c057600080fd5b506103c9610f00565b6040516103d6919061268a565b60405180910390f35b3480156103eb57600080fd5b506103f4610f13565b604051610401919061273e565b60405180910390f35b34801561041657600080fd5b5061041f610fa1565b60405161042c919061273e565b60405180910390f35b34801561044157600080fd5b5061045c60048036038101906104579190612796565b61102f565b6040516104699190612804565b60405180910390f35b34801561047e57600080fd5b5061049960048036038101906104949190612908565b611041565b6040516104a6919061289a565b60405180910390f35b3480156104bb57600080fd5b506104c46110f9565b005b3480156104d257600080fd5b506104db61110d565b6040516104e8919061289a565b60405180910390f35b3480156104fd57600080fd5b50610506611113565b6040516105139190612804565b60405180910390f35b34801561052857600080fd5b50610543600480360381019061053e9190612796565b61113c565b005b34801561055157600080fd5b5061055a61114e565b604051610567919061273e565b60405180910390f35b34801561057c57600080fd5b506105856111e0565b604051610592919061289a565b60405180910390f35b3480156105a757600080fd5b506105b06111ea565b6040516105bd919061289a565b60405180910390f35b6105e060048036038101906105db9190612796565b6111f0565b005b3480156105ee57600080fd5b5061060960048036038101906106049190612961565b611386565b005b34801561061757600080fd5b506106206114fd565b60405161062d919061289a565b60405180910390f35b34801561064257600080fd5b5061065d60048036038101906106589190612ad6565b611503565b005b34801561066b57600080fd5b5061068660048036038101906106819190612796565b6116e8565b604051610693919061273e565b60405180910390f35b3480156106a857600080fd5b506106b1611792565b6040516106be919061268a565b60405180910390f35b3480156106d357600080fd5b506106dc6117a5565b6040516106e9919061273e565b60405180910390f35b3480156106fe57600080fd5b5061071960048036038101906107149190612b59565b6117b4565b005b34801561072757600080fd5b506107306117d9565b60405161073d919061273e565b60405180910390f35b34801561075257600080fd5b5061076d60048036038101906107689190612b86565b6117f9565b60405161077a919061268a565b60405180910390f35b34801561078f57600080fd5b506107aa60048036038101906107a59190612908565b61188d565b005b3480156107b857600080fd5b506107d360048036038101906107ce9190612b59565b611910565b005b60006301ffc9a760e01b827bffffffffffffffffffffffffffffffffffffffffffffffffffffffff1916148061083057506380ac58cd60e01b827bffffffffffffffffffffffffffffffffffffffffffffffffffffffff1916145b806108605750635b5e139f60e01b827bffffffffffffffffffffffffffffffffffffffffffffffffffffffff1916145b9050919050565b60606003805461087690612bf5565b80601f01602080910402602001604051908101604052809291908181526020018280546108a290612bf5565b80156108ef5780601f106108c4576101008083540402835291602001916108ef565b820191906000526020600020905b8154815290600101906020018083116108d257829003601f168201915b5050505050905090565b600061090482611935565b61093a576040517fcf4700e400000000000000000000000000000000000000000000000000000000815260040160405180910390fd5b6007600083815260200190815260200160002060000160009054906101000a900473ffffffffffffffffffffffffffffffffffffffff169050919050565b60006109838261102f565b90508073ffffffffffffffffffffffffffffffffffffffff166109a4611994565b73ffffffffffffffffffffffffffffffffffffffff1614610a07576109d0816109cb611994565b6117f9565b610a06576040517fcfb3b94200000000000000000000000000000000000000000000000000000000815260040160405180910390fd5b5b826007600084815260200190815260200160002060000160006101000a81548173ffffffffffffffffffffffffffffffffffffffff021916908373ffffffffffffffffffffffffffffffffffffffff160217905550818373ffffffffffffffffffffffffffffffffffffffff168273ffffffffffffffffffffffffffffffffffffffff167f8c5be1e5ebec7d5bd14f71427d1e84f3dd0314c0f7b2291e5b200ac8c7c3b92560405160405180910390a4505050565b610ac461199c565b80600d8190555050565b6000610ad8611a1a565b6002546001540303905090565b8260006daaeb6d7670e522a718067333cd4e73ffffffffffffffffffffffffffffffffffffffff163b1115610cb5573373ffffffffffffffffffffffffffffffffffffffff168173ffffffffffffffffffffffffffffffffffffffff1603610b5757610b52848484611a23565b610cc1565b6daaeb6d7670e522a718067333cd4e73ffffffffffffffffffffffffffffffffffffffff1663c617113430336040518363ffffffff1660e01b8152600401610ba0929190612c26565b602060405180830381865afa158015610bbd573d6000803e3d6000fd5b505050506040513d601f19601f82011682018060405250810190610be19190612c64565b8015610c7357506daaeb6d7670e522a718067333cd4e73ffffffffffffffffffffffffffffffffffffffff1663c617113430836040518363ffffffff1660e01b8152600401610c31929190612c26565b602060405180830381865afa158015610c4e573d6000803e3d6000fd5b505050506040513d601f19601f82011682018060405250810190610c729190612c64565b5b610cb457336040517fede71dcc000000000000000000000000000000000000000000000000000000008152600401610cab9190612804565b60405180910390fd5b5b610cc0848484611a23565b5b50505050565b610ccf61199c565b3373ffffffffffffffffffffffffffffffffffffffff166108fc479081150290604051600060405180830381858888f19350505050158015610d15573d6000803e3d6000fd5b50565b8260006daaeb6d7670e522a718067333cd4e73ffffffffffffffffffffffffffffffffffffffff163b1115610ee8573373ffffffffffffffffffffffffffffffffffffffff168173ffffffffffffffffffffffffffffffffffffffff1603610d8a57610d85848484611d45565b610ef4565b6daaeb6d7670e522a718067333cd4e73ffffffffffffffffffffffffffffffffffffffff1663c617113430336040518363ffffffff1660e01b8152600401610dd3929190612c26565b602060405180830381865afa158015610df0573d6000803e3d6000fd5b505050506040513d601f19601f82011682018060405250810190610e149190612c64565b8015610ea657506daaeb6d7670e522a718067333cd4e73ffffffffffffffffffffffffffffffffffffffff1663c617113430836040518363ffffffff1660e01b8152600401610e64929190612c26565b602060405180830381865afa158015610e81573d6000803e3d6000fd5b505050506040513d601f19601f82011682018060405250810190610ea59190612c64565b5b610ee757336040517fede71dcc000000000000000000000000000000000000000000000000000000008152600401610ede9190612804565b60405180910390fd5b5b610ef3848484611d45565b5b50505050565b600c5481565b601060009054906101000a900460ff1681565b600a8054610f2090612bf5565b80601f0160208091040260200160405190810160405280929190818152602001828054610f4c90612bf5565b8015610f995780601f10610f6e57610100808354040283529160200191610f99565b820191906000526020600020905b815481529060010190602001808311610f7c57829003601f168201915b505050505081565b60098054610fae90612bf5565b80601f0160208091040260200160405190810160405280929190818152602001828054610fda90612bf5565b80156110275780601f10610ffc57610100808354040283529160200191611027565b820191906000526020600020905b81548152906001019060200180831161100a57829003601f168201915b505050505081565b600061103a82611d65565b9050919050565b60008073ffffffffffffffffffffffffffffffffffffffff168273ffffffffffffffffffffffffffffffffffffffff16036110a8576040517f8f4eb60400000000000000000000000000000000000000000000000000000000815260040160405180910390fd5b67ffffffffffffffff600660008473ffffffffffffffffffffffffffffffffffffffff1673ffffffffffffffffffffffffffffffffffffffff16815260200190815260200160002054169050919050565b61110161199c565b61110b6000611e31565b565b600b5481565b60008060009054906101000a900473ffffffffffffffffffffffffffffffffffffffff16905090565b61114461199c565b80600f8190555050565b60606004805461115d90612bf5565b80601f016020809104026020016040519081016040528092919081815260200182805461118990612bf5565b80156111d65780601f106111ab576101008083540402835291602001916111d6565b820191906000526020600020905b8154815290600101906020018083116111b957829003601f168201915b5050505050905090565b6000600f54905090565b600f5481565b600e60009054906101000a900460ff1661123f576040517f08c379a000000000000000000000000000000000000000000000000000000000815260040161123690612cdd565b60405180910390fd5b600b548161124b610ace565b6112559190612d2c565b10611295576040517f08c379a000000000000000000000000000000000000000000000000000000000815260040161128c90612dce565b60405180910390fd5b600d54816112a233611041565b6112ac9190612d2c565b11156112ed576040517f08c379a00000000000000000000000000000000000000000000000000000000081526004016112e490612e60565b60405180910390fd5b806112f66111e0565b6113009190612e80565b341015611342576040517f08c379a000000000000000000000000000000000000000000000000000000000815260040161133990612f4c565b60405180910390fd5b61134c3382611ef5565b7ff5535ccd9f40eb4bc73fac8710dbb2effbf3329da83f62b35d9aa88161bb85ca3360405161137b9190612804565b60405180910390a150565b61138e611994565b73ffffffffffffffffffffffffffffffffffffffff168273ffffffffffffffffffffffffffffffffffffffff16036113f2576040517fb06307db00000000000000000000000000000000000000000000000000000000815260040160405180910390fd5b80600860006113ff611994565b73ffffffffffffffffffffffffffffffffffffffff1673ffffffffffffffffffffffffffffffffffffffff16815260200190815260200160002060008473ffffffffffffffffffffffffffffffffffffffff1673ffffffffffffffffffffffffffffffffffffffff16815260200190815260200160002060006101000a81548160ff0219169083151502179055508173ffffffffffffffffffffffffffffffffffffffff166114ac611994565b73ffffffffffffffffffffffffffffffffffffffff167f17307eab39ab6107e8899845ad3d59bd9653f200f220920489ca2b5937696c31836040516114f1919061268a565b60405180910390a35050565b600d5481565b8360006daaeb6d7670e522a718067333cd4e73ffffffffffffffffffffffffffffffffffffffff163b11156116d4573373ffffffffffffffffffffffffffffffffffffffff168173ffffffffffffffffffffffffffffffffffffffff160361157657611571858585856120b1565b6116e1565b6daaeb6d7670e522a718067333cd4e73ffffffffffffffffffffffffffffffffffffffff1663c617113430336040518363ffffffff1660e01b81526004016115bf929190612c26565b602060405180830381865afa1580156115dc573d6000803e3d6000fd5b505050506040513d601f19601f820116820180604052508101906116009190612c64565b801561169257506daaeb6d7670e522a718067333cd4e73ffffffffffffffffffffffffffffffffffffffff1663c617113430836040518363ffffffff1660e01b8152600401611650929190612c26565b602060405180830381865afa15801561166d573d6000803e3d6000fd5b505050506040513d601f19601f820116820180604052508101906116919190612c64565b5b6116d357336040517fede71dcc0000000000000000000000000000000000000000000000000000000081526004016116ca9190612804565b60405180910390fd5b5b6116e0858585856120b1565b5b5050505050565b60606116f382611935565b611732576040517f08c379a000000000000000000000000000000000000000000000000000000000815260040161172990612fde565b60405180910390fd5b600061173c612124565b9050600081511161175c576040518060200160405280600081525061178a565b806117668461217a565b600a60405160200161177a939291906130ce565b6040516020818303038152906040525b915050919050565b600e60009054906101000a900460ff1681565b60606117af612124565b905090565b6117bc61199c565b80601060006101000a81548160ff02191690831515021790555050565b606060405180606001604052806036815260200161331060369139905090565b6000600860008473ffffffffffffffffffffffffffffffffffffffff1673ffffffffffffffffffffffffffffffffffffffff16815260200190815260200160002060008373ffffffffffffffffffffffffffffffffffffffff1673ffffffffffffffffffffffffffffffffffffffff16815260200190815260200160002060009054906101000a900460ff16905092915050565b61189561199c565b600073ffffffffffffffffffffffffffffffffffffffff168173ffffffffffffffffffffffffffffffffffffffff1603611904576040517f08c379a00000000000000000000000000000000000000000000000000000000081526004016118fb90613171565b60405180910390fd5b61190d81611e31565b50565b61191861199c565b80600e60006101000a81548160ff02191690831515021790555050565b600081611940611a1a565b1115801561194f575060015482105b801561198d575060007c0100000000000000000000000000000000000000000000000000000000600560008581526020019081526020016000205416145b9050919050565b600033905090565b6119a4612248565b73ffffffffffffffffffffffffffffffffffffffff166119c2611113565b73ffffffffffffffffffffffffffffffffffffffff1614611a18576040517f08c379a0000000000000000000000000000000000000000000000000000000008152600401611a0f906131dd565b60405180910390fd5b565b60006001905090565b6000611a2e82611d65565b90508373ffffffffffffffffffffffffffffffffffffffff168173ffffffffffffffffffffffffffffffffffffffff1614611a95576040517fa114810000000000000000000000000000000000000000000000000000000000815260040160405180910390fd5b600080611aa184612250565b91509150611ab78187611ab2611994565b612277565b611b0357611acc86611ac7611994565b6117f9565b611b02576040517f59c896be00000000000000000000000000000000000000000000000000000000815260040160405180910390fd5b5b600073ffffffffffffffffffffffffffffffffffffffff168573ffffffffffffffffffffffffffffffffffffffff1603611b69576040517fea553b3400000000000000000000000000000000000000000000000000000000815260040160405180910390fd5b611b7686868660016122bb565b8015611b8157600082555b600660008773ffffffffffffffffffffffffffffffffffffffff1673ffffffffffffffffffffffffffffffffffffffff168152602001908152602001600020600081546001900391905081905550600660008673ffffffffffffffffffffffffffffffffffffffff1673ffffffffffffffffffffffffffffffffffffffff1681526020019081526020016000206000815460010191905081905550611c4f85611c2b8888876122c1565b7c0200000000000000000000000000000000000000000000000000000000176122e9565b600560008681526020019081526020016000208190555060007c0200000000000000000000000000000000000000000000000000000000841603611cd55760006001850190506000600560008381526020019081526020016000205403611cd3576001548114611cd2578360056000838152602001908152602001600020819055505b5b505b838573ffffffffffffffffffffffffffffffffffffffff168773ffffffffffffffffffffffffffffffffffffffff167fddf252ad1be2c89b69c2b068fc378daa952ba7f163c4a11628f55a4df523b3ef60405160405180910390a4611d3d8686866001612314565b505050505050565b611d6083838360405180602001604052806000815250611503565b505050565b60008082905080611d74611a1a565b11611dfa57600154811015611df95760006005600083815260200190815260200160002054905060007c0100000000000000000000000000000000000000000000000000000000821603611df7575b60008103611ded576005600083600190039350838152602001908152602001600020549050611dc3565b8092505050611e2c565b505b5b6040517fdf2d9b4200000000000000000000000000000000000000000000000000000000815260040160405180910390fd5b919050565b60008060009054906101000a900473ffffffffffffffffffffffffffffffffffffffff169050816000806101000a81548173ffffffffffffffffffffffffffffffffffffffff021916908373ffffffffffffffffffffffffffffffffffffffff1602179055508173ffffffffffffffffffffffffffffffffffffffff168173ffffffffffffffffffffffffffffffffffffffff167f8be0079c531659141344cd1fd0a4f28419497f9722a3daafe3b4186f6b6457e060405160405180910390a35050565b6000600154905060008203611f36576040517fb562e8dd00000000000000000000000000000000000000000000000000000000815260040160405180910390fd5b611f4360008483856122bb565b600160406001901b178202600660008573ffffffffffffffffffffffffffffffffffffffff1673ffffffffffffffffffffffffffffffffffffffff16815260200190815260200160002060008282540192505081905550611fba83611fab60008660006122c1565b611fb48561231a565b176122e9565b6005600083815260200190815260200160002081905550600080838301905073ffffffffffffffffffffffffffffffffffffffff85169150828260007fddf252ad1be2c89b69c2b068fc378daa952ba7f163c4a11628f55a4df523b3ef600080a4600183015b81811461205b57808360007fddf252ad1be2c89b69c2b068fc378daa952ba7f163c4a11628f55a4df523b3ef600080a4600181019050612020565b5060008203612096576040517f2e07630000000000000000000000000000000000000000000000000000000000815260040160405180910390fd5b8060018190555050506120ac6000848385612314565b505050565b6120bc848484610ae5565b60008373ffffffffffffffffffffffffffffffffffffffff163b1461211e576120e78484848461232a565b61211d576040517fd1a57ed600000000000000000000000000000000000000000000000000000000815260040160405180910390fd5b5b50505050565b6060601060009054906101000a900460ff161561215b576040518060600160405280603b8152602001613346603b91399050612177565b6040518060600160405280603681526020016133816036913990505b90565b6060600060016121898461247a565b01905060008167ffffffffffffffff8111156121a8576121a76129ab565b5b6040519080825280601f01601f1916602001820160405280156121da5781602001600182028036833780820191505090505b509050600082602001820190505b60011561223d578080600190039150507f3031323334353637383961626364656600000000000000000000000000000000600a86061a8153600a8581612231576122306131fd565b5b049450600085036121e8575b819350505050919050565b600033905090565b60008060006007600085815260200190815260200160002090508092508254915050915091565b600073ffffffffffffffffffffffffffffffffffffffff8316925073ffffffffffffffffffffffffffffffffffffffff821691508382148383141790509392505050565b50505050565b60008060e883901c905060e86122d88686846125cd565b62ffffff16901b9150509392505050565b600073ffffffffffffffffffffffffffffffffffffffff83169250814260a01b178317905092915050565b50505050565b60006001821460e11b9050919050565b60008373ffffffffffffffffffffffffffffffffffffffff1663150b7a02612350611994565b8786866040518563ffffffff1660e01b81526004016123729493929190613281565b6020604051808303816000875af19250505080156123ae57506040513d601f19601f820116820180604052508101906123ab91906132e2565b60015b612427573d80600081146123de576040519150601f19603f3d011682016040523d82523d6000602084013e6123e3565b606091505b50600081510361241f576040517fd1a57ed600000000000000000000000000000000000000000000000000000000815260040160405180910390fd5b805181602001fd5b63150b7a0260e01b7bffffffffffffffffffffffffffffffffffffffffffffffffffffffff1916817bffffffffffffffffffffffffffffffffffffffffffffffffffffffff191614915050949350505050565b600080600090507a184f03e93ff9f4daa797ed6e38ed64bf6a1f01000000000000000083106124d8577a184f03e93ff9f4daa797ed6e38ed64bf6a1f01000000000000000083816124ce576124cd6131fd565b5b0492506040810190505b6d04ee2d6d415b85acef81000000008310612515576d04ee2d6d415b85acef8100000000838161250b5761250a6131fd565b5b0492506020810190505b662386f26fc10000831061254457662386f26fc10000838161253a576125396131fd565b5b0492506010810190505b6305f5e100831061256d576305f5e1008381612563576125626131fd565b5b0492506008810190505b6127108310612592576127108381612588576125876131fd565b5b0492506004810190505b606483106125b557606483816125ab576125aa6131fd565b5b0492506002810190505b600a83106125c4576001810190505b80915050919050565b60009392505050565b6000604051905090565b600080fd5b600080fd5b60007fffffffff0000000000000000000000000000000000000000000000000000000082169050919050565b61261f816125ea565b811461262a57600080fd5b50565b60008135905061263c81612616565b92915050565b600060208284031215612658576126576125e0565b5b60006126668482850161262d565b91505092915050565b60008115159050919050565b6126848161266f565b82525050565b600060208201905061269f600083018461267b565b92915050565b600081519050919050565b600082825260208201905092915050565b60005b838110156126df5780820151818401526020810190506126c4565b838111156126ee576000848401525b50505050565b6000601f19601f8301169050919050565b6000612710826126a5565b61271a81856126b0565b935061272a8185602086016126c1565b612733816126f4565b840191505092915050565b600060208201905081810360008301526127588184612705565b905092915050565b6000819050919050565b61277381612760565b811461277e57600080fd5b50565b6000813590506127908161276a565b92915050565b6000602082840312156127ac576127ab6125e0565b5b60006127ba84828501612781565b91505092915050565b600073ffffffffffffffffffffffffffffffffffffffff82169050919050565b60006127ee826127c3565b9050919050565b6127fe816127e3565b82525050565b600060208201905061281960008301846127f5565b92915050565b612828816127e3565b811461283357600080fd5b50565b6000813590506128458161281f565b92915050565b60008060408385031215612862576128616125e0565b5b600061287085828601612836565b925050602061288185828601612781565b9150509250929050565b61289481612760565b82525050565b60006020820190506128af600083018461288b565b92915050565b6000806000606084860312156128ce576128cd6125e0565b5b60006128dc86828701612836565b93505060206128ed86828701612836565b92505060406128fe86828701612781565b9150509250925092565b60006020828403121561291e5761291d6125e0565b5b600061292c84828501612836565b91505092915050565b61293e8161266f565b811461294957600080fd5b50565b60008135905061295b81612935565b92915050565b60008060408385031215612978576129776125e0565b5b600061298685828601612836565b92505060206129978582860161294c565b9150509250929050565b600080fd5b600080fd5b7f4e487b7100000000000000000000000000000000000000000000000000000000600052604160045260246000fd5b6129e3826126f4565b810181811067ffffffffffffffff82111715612a0257612a016129ab565b5b80604052505050565b6000612a156125d6565b9050612a2182826129da565b919050565b600067ffffffffffffffff821115612a4157612a406129ab565b5b612a4a826126f4565b9050602081019050919050565b82818337600083830152505050565b6000612a79612a7484612a26565b612a0b565b905082815260208101848484011115612a9557612a946129a6565b5b612aa0848285612a57565b509392505050565b600082601f830112612abd57612abc6129a1565b5b8135612acd848260208601612a66565b91505092915050565b60008060008060808587031215612af057612aef6125e0565b5b6000612afe87828801612836565b9450506020612b0f87828801612836565b9350506040612b2087828801612781565b925050606085013567ffffffffffffffff811115612b4157612b406125e5565b5b612b4d87828801612aa8565b91505092959194509250565b600060208284031215612b6f57612b6e6125e0565b5b6000612b7d8482850161294c565b91505092915050565b60008060408385031215612b9d57612b9c6125e0565b5b6000612bab85828601612836565b9250506020612bbc85828601612836565b9150509250929050565b7f4e487b7100000000000000000000000000000000000000000000000000000000600052602260045260246000fd5b60006002820490506001821680612c0d57607f821691505b602082108103612c2057612c1f612bc6565b5b50919050565b6000604082019050612c3b60008301856127f5565b612c4860208301846127f5565b9392505050565b600081519050612c5e81612935565b92915050565b600060208284031215612c7a57612c796125e0565b5b6000612c8884828501612c4f565b91505092915050565b7f4d696e74696e67206973206e6f7420656e61626c656400000000000000000000600082015250565b6000612cc76016836126b0565b9150612cd282612c91565b602082019050919050565b60006020820190508181036000830152612cf681612cba565b9050919050565b7f4e487b7100000000000000000000000000000000000000000000000000000000600052601160045260246000fd5b6000612d3782612760565b9150612d4283612760565b9250827fffffffffffffffffffffffffffffffffffffffffffffffffffffffffffffffff03821115612d7757612d76612cfd565b5b828201905092915050565b7f43616e6e6f74206d696e74206d6f7265207468616e206d617820737570706c79600082015250565b6000612db86020836126b0565b9150612dc382612d82565b602082019050919050565b60006020820190508181036000830152612de781612dab565b9050919050565b7f456163682061646472657373206d6179206f6e6c79206d696e742078204e465460008201527f7321000000000000000000000000000000000000000000000000000000000000602082015250565b6000612e4a6022836126b0565b9150612e5582612dee565b604082019050919050565b60006020820190508181036000830152612e7981612e3d565b9050919050565b6000612e8b82612760565b9150612e9683612760565b9250817fffffffffffffffffffffffffffffffffffffffffffffffffffffffffffffffff0483118215151615612ecf57612ece612cfd565b5b828202905092915050565b7f4e6f7420656e6f756768204554482073656e743b20636865636b20707269636560008201527f2100000000000000000000000000000000000000000000000000000000000000602082015250565b6000612f366021836126b0565b9150612f4182612eda565b604082019050919050565b60006020820190508181036000830152612f6581612f29565b9050919050565b7f4552433732314d657461646174613a2055524920717565727920666f72206e6f60008201527f6e6578697374656e7420746f6b656e0000000000000000000000000000000000602082015250565b6000612fc8602f836126b0565b9150612fd382612f6c565b604082019050919050565b60006020820190508181036000830152612ff781612fbb565b9050919050565b600081905092915050565b6000613014826126a5565b61301e8185612ffe565b935061302e8185602086016126c1565b80840191505092915050565b60008190508160005260206000209050919050565b6000815461305c81612bf5565b6130668186612ffe565b945060018216600081146130815760018114613092576130c5565b60ff198316865281860193506130c5565b61309b8561303a565b60005b838110156130bd5781548189015260018201915060208101905061309e565b838801955050505b50505092915050565b60006130da8286613009565b91506130e68285613009565b91506130f2828461304f565b9150819050949350505050565b7f4f776e61626c653a206e6577206f776e657220697320746865207a65726f206160008201527f6464726573730000000000000000000000000000000000000000000000000000602082015250565b600061315b6026836126b0565b9150613166826130ff565b604082019050919050565b6000602082019050818103600083015261318a8161314e565b9050919050565b7f4f776e61626c653a2063616c6c6572206973206e6f7420746865206f776e6572600082015250565b60006131c76020836126b0565b91506131d282613191565b602082019050919050565b600060208201905081810360008301526131f6816131ba565b9050919050565b7f4e487b7100000000000000000000000000000000000000000000000000000000600052601260045260246000fd5b600081519050919050565b600082825260208201905092915050565b60006132538261322c565b61325d8185613237565b935061326d8185602086016126c1565b613276816126f4565b840191505092915050565b600060808201905061329660008301876127f5565b6132a360208301866127f5565b6132b0604083018561288b565b81810360608301526132c28184613248565b905095945050505050565b6000815190506132dc81612616565b92915050565b6000602082840312156132f8576132f76125e0565b5b6000613306848285016132cd565b9150509291505056fe697066733a2f2f516d62377a796b554d77385055443678726e52665067386e444b534479466f43687845704d65574e4675507455362f697066733a2f2f516d55794652717966666f69764d56744756567375533259633837783833474e7153723250756a6377464a6b73412f6a736f6e2f697066733a2f2f516d596f48536578755935724b69705059664635396d626e6a6a3742364b396a634a6a6d397144675845764161452fa264697066735822122076f32e477de985d161ab42e2b59434d24c51aff3b775e71cab21a96538dcc1a764736f6c634300080d0033",
  "linkReferences": {},
  "deployedLinkReferences": {}
}