{
  "_format": "hh-sol-artifact-1",
  "contractName": "NFT",
  "sourceName": "src/backend/contracts/NFT.sol",
  "abi": [
    {
      "inputs": [],
      "stateMutability": "nonpayable",
      "type": "constructor"
    },
    {
      "inputs": [],
      "name": "ApprovalCallerNotOwnerNorApproved",
      "type": "error"
    },
    {
      "inputs": [],
      "name": "ApprovalQueryForNonexistentToken",
      "type": "error"
    },
    {
      "inputs": [],
      "name": "ApproveToCaller",
      "type": "error"
    },
    {
      "inputs": [],
      "name": "BalanceQueryForZeroAddress",
      "type": "error"
    },
    {
      "inputs": [],
      "name": "MintERC2309QuantityExceedsLimit",
      "type": "error"
    },
    {
      "inputs": [],
      "name": "MintToZeroAddress",
      "type": "error"
    },
    {
      "inputs": [],
      "name": "MintZeroQuantity",
      "type": "error"
    },
    {
      "inputs": [
        {
          "internalType": "address",
          "name": "operator",
          "type": "address"
        }
      ],
      "name": "OperatorNotAllowed",
      "type": "error"
    },
    {
      "inputs": [],
      "name": "OwnerQueryForNonexistentToken",
      "type": "error"
    },
    {
      "inputs": [],
      "name": "OwnershipNotInitializedForExtraData",
      "type": "error"
    },
    {
      "inputs": [],
      "name": "TransferCallerNotOwnerNorApproved",
      "type": "error"
    },
    {
      "inputs": [],
      "name": "TransferFromIncorrectOwner",
      "type": "error"
    },
    {
      "inputs": [],
      "name": "TransferToNonERC721ReceiverImplementer",
      "type": "error"
    },
    {
      "inputs": [],
      "name": "TransferToZeroAddress",
      "type": "error"
    },
    {
      "inputs": [],
      "name": "URIQueryForNonexistentToken",
      "type": "error"
    },
    {
      "anonymous": false,
      "inputs": [
        {
          "indexed": true,
          "internalType": "address",
          "name": "owner",
          "type": "address"
        },
        {
          "indexed": true,
          "internalType": "address",
          "name": "approved",
          "type": "address"
        },
        {
          "indexed": true,
          "internalType": "uint256",
          "name": "tokenId",
          "type": "uint256"
        }
      ],
      "name": "Approval",
      "type": "event"
    },
    {
      "anonymous": false,
      "inputs": [
        {
          "indexed": true,
          "internalType": "address",
          "name": "owner",
          "type": "address"
        },
        {
          "indexed": true,
          "internalType": "address",
          "name": "operator",
          "type": "address"
        },
        {
          "indexed": false,
          "internalType": "bool",
          "name": "approved",
          "type": "bool"
        }
      ],
      "name": "ApprovalForAll",
      "type": "event"
    },
    {
      "anonymous": false,
      "inputs": [
        {
          "indexed": true,
          "internalType": "uint256",
          "name": "fromTokenId",
          "type": "uint256"
        },
        {
          "indexed": false,
          "internalType": "uint256",
          "name": "toTokenId",
          "type": "uint256"
        },
        {
          "indexed": true,
          "internalType": "address",
          "name": "from",
          "type": "address"
        },
        {
          "indexed": true,
          "internalType": "address",
          "name": "to",
          "type": "address"
        }
      ],
      "name": "ConsecutiveTransfer",
      "type": "event"
    },
    {
      "anonymous": false,
      "inputs": [
        {
          "indexed": false,
          "internalType": "address",
          "name": "user",
          "type": "address"
        }
      ],
      "name": "MintSuccessful",
      "type": "event"
    },
    {
      "anonymous": false,
      "inputs": [
        {
          "indexed": true,
          "internalType": "address",
          "name": "previousOwner",
          "type": "address"
        },
        {
          "indexed": true,
          "internalType": "address",
          "name": "newOwner",
          "type": "address"
        }
      ],
      "name": "OwnershipTransferred",
      "type": "event"
    },
    {
      "anonymous": false,
      "inputs": [
        {
          "indexed": true,
          "internalType": "address",
          "name": "from",
          "type": "address"
        },
        {
          "indexed": true,
          "internalType": "address",
          "name": "to",
          "type": "address"
        },
        {
          "indexed": true,
          "internalType": "uint256",
          "name": "tokenId",
          "type": "uint256"
        }
      ],
      "name": "Transfer",
      "type": "event"
    },
    {
      "inputs": [
        {
          "internalType": "address",
          "name": "_user",
          "type": "address"
        },
        {
          "internalType": "uint256",
          "name": "_quantity",
          "type": "uint256"
        }
      ],
      "name": "airdrop",
      "outputs": [],
      "stateMutability": "nonpayable",
      "type": "function"
    },
    {
      "inputs": [
        {
          "internalType": "address",
          "name": "to",
          "type": "address"
        },
        {
          "internalType": "uint256",
          "name": "tokenId",
          "type": "uint256"
        }
      ],
      "name": "approve",
      "outputs": [],
      "stateMutability": "nonpayable",
      "type": "function"
    },
    {
      "inputs": [
        {
          "internalType": "address",
          "name": "owner",
          "type": "address"
        }
      ],
      "name": "balanceOf",
      "outputs": [
        {
          "internalType": "uint256",
          "name": "",
          "type": "uint256"
        }
      ],
      "stateMutability": "view",
      "type": "function"
    },
    {
      "inputs": [],
      "name": "baseTokenURI",
      "outputs": [
        {
          "internalType": "string",
          "name": "",
          "type": "string"
        }
      ],
      "stateMutability": "view",
      "type": "function"
    },
    {
      "inputs": [
        {
          "internalType": "uint256",
          "name": "tokenId",
          "type": "uint256"
        }
      ],
      "name": "getApproved",
      "outputs": [
        {
          "internalType": "address",
          "name": "",
          "type": "address"
        }
      ],
      "stateMutability": "view",
      "type": "function"
    },
    {
      "inputs": [],
      "name": "getPrice",
      "outputs": [
        {
          "internalType": "uint256",
          "name": "",
          "type": "uint256"
        }
      ],
      "stateMutability": "view",
      "type": "function"
    },
    {
      "inputs": [
        {
          "internalType": "address",
          "name": "owner",
          "type": "address"
        },
        {
          "internalType": "address",
          "name": "operator",
          "type": "address"
        }
      ],
      "name": "isApprovedForAll",
      "outputs": [
        {
          "internalType": "bool",
          "name": "",
          "type": "bool"
        }
      ],
      "stateMutability": "view",
      "type": "function"
    },
    {
      "inputs": [],
      "name": "max_supply",
      "outputs": [
        {
          "internalType": "uint256",
          "name": "",
          "type": "uint256"
        }
      ],
      "stateMutability": "view",
      "type": "function"
    },
    {
      "inputs": [
        {
          "internalType": "uint256",
          "name": "quantity",
          "type": "uint256"
        }
      ],
      "name": "mint",
      "outputs": [],
      "stateMutability": "payable",
      "type": "function"
    },
    {
      "inputs": [],
      "name": "mintEnabled",
      "outputs": [
        {
          "internalType": "bool",
          "name": "",
          "type": "bool"
        }
      ],
      "stateMutability": "view",
      "type": "function"
    },
    {
      "inputs": [],
      "name": "name",
      "outputs": [
        {
          "internalType": "string",
          "name": "",
          "type": "string"
        }
      ],
      "stateMutability": "view",
      "type": "function"
    },
    {
      "inputs": [],
      "name": "owner",
      "outputs": [
        {
          "internalType": "address",
          "name": "",
          "type": "address"
        }
      ],
      "stateMutability": "view",
      "type": "function"
    },
    {
      "inputs": [
        {
          "internalType": "uint256",
          "name": "tokenId",
          "type": "uint256"
        }
      ],
      "name": "ownerOf",
      "outputs": [
        {
          "internalType": "address",
          "name": "",
          "type": "address"
        }
      ],
      "stateMutability": "view",
      "type": "function"
    },
    {
      "inputs": [],
      "name": "price",
      "outputs": [
        {
          "internalType": "uint256",
          "name": "",
          "type": "uint256"
        }
      ],
      "stateMutability": "view",
      "type": "function"
    },
    {
      "inputs": [],
      "name": "renounceOwnership",
      "outputs": [],
      "stateMutability": "nonpayable",
      "type": "function"
    },
    {
      "inputs": [],
      "name": "revealed",
      "outputs": [
        {
          "internalType": "bool",
          "name": "",
          "type": "bool"
        }
      ],
      "stateMutability": "view",
      "type": "function"
    },
    {
      "inputs": [
        {
          "internalType": "address",
          "name": "from",
          "type": "address"
        },
        {
          "internalType": "address",
          "name": "to",
          "type": "address"
        },
        {
          "internalType": "uint256",
          "name": "tokenId",
          "type": "uint256"
        }
      ],
      "name": "safeTransferFrom",
      "outputs": [],
      "stateMutability": "nonpayable",
      "type": "function"
    },
    {
      "inputs": [
        {
          "internalType": "address",
          "name": "from",
          "type": "address"
        },
        {
          "internalType": "address",
          "name": "to",
          "type": "address"
        },
        {
          "internalType": "uint256",
          "name": "tokenId",
          "type": "uint256"
        },
        {
          "internalType": "bytes",
          "name": "data",
          "type": "bytes"
        }
      ],
      "name": "safeTransferFrom",
      "outputs": [],
      "stateMutability": "nonpayable",
      "type": "function"
    },
    {
      "inputs": [
        {
          "internalType": "address",
          "name": "operator",
          "type": "address"
        },
        {
          "internalType": "bool",
          "name": "approved",
          "type": "bool"
        }
      ],
      "name": "setApprovalForAll",
      "outputs": [],
      "stateMutability": "nonpayable",
      "type": "function"
    },
    {
      "inputs": [
        {
          "internalType": "uint256",
          "name": "_max_supply",
          "type": "uint256"
        }
      ],
      "name": "setMaxSupply",
      "outputs": [],
      "stateMutability": "nonpayable",
      "type": "function"
    },
    {
      "inputs": [
        {
          "internalType": "bool",
          "name": "_state",
          "type": "bool"
        }
      ],
      "name": "setMintEnabled",
      "outputs": [],
      "stateMutability": "nonpayable",
      "type": "function"
    },
    {
      "inputs": [
        {
          "internalType": "uint256",
          "name": "_price",
          "type": "uint256"
        }
      ],
      "name": "setPrice",
      "outputs": [],
      "stateMutability": "nonpayable",
      "type": "function"
    },
    {
      "inputs": [
        {
          "internalType": "bool",
          "name": "_revealed",
          "type": "bool"
        }
      ],
      "name": "setRevealed",
      "outputs": [],
      "stateMutability": "nonpayable",
      "type": "function"
    },
    {
      "inputs": [
        {
          "internalType": "bytes4",
          "name": "interfaceId",
          "type": "bytes4"
        }
      ],
      "name": "supportsInterface",
      "outputs": [
        {
          "internalType": "bool",
          "name": "",
          "type": "bool"
        }
      ],
      "stateMutability": "view",
      "type": "function"
    },
    {
      "inputs": [],
      "name": "symbol",
      "outputs": [
        {
          "internalType": "string",
          "name": "",
          "type": "string"
        }
      ],
      "stateMutability": "view",
      "type": "function"
    },
    {
      "inputs": [
        {
          "internalType": "uint256",
          "name": "_tokenId",
          "type": "uint256"
        }
      ],
      "name": "tokenURI",
      "outputs": [
        {
          "internalType": "string",
          "name": "",
          "type": "string"
        }
      ],
      "stateMutability": "view",
      "type": "function"
    },
    {
      "inputs": [],
      "name": "totalSupply",
      "outputs": [
        {
          "internalType": "uint256",
          "name": "",
          "type": "uint256"
        }
      ],
      "stateMutability": "view",
      "type": "function"
    },
    {
      "inputs": [
        {
          "internalType": "address",
          "name": "from",
          "type": "address"
        },
        {
          "internalType": "address",
          "name": "to",
          "type": "address"
        },
        {
          "internalType": "uint256",
          "name": "tokenId",
          "type": "uint256"
        }
      ],
      "name": "transferFrom",
      "outputs": [],
      "stateMutability": "nonpayable",
      "type": "function"
    },
    {
      "inputs": [
        {
          "internalType": "address",
          "name": "newOwner",
          "type": "address"
        }
      ],
      "name": "transferOwnership",
      "outputs": [],
      "stateMutability": "nonpayable",
      "type": "function"
    },
    {
      "inputs": [],
      "name": "uriPrefix",
      "outputs": [
        {
          "internalType": "string",
          "name": "",
          "type": "string"
        }
      ],
      "stateMutability": "view",
      "type": "function"
    },
    {
      "inputs": [],
      "name": "uriSuffix",
      "outputs": [
        {
          "internalType": "string",
          "name": "",
          "type": "string"
        }
      ],
      "stateMutability": "view",
      "type": "function"
    },
    {
      "inputs": [],
      "name": "withdraw",
      "outputs": [],
      "stateMutability": "nonpayable",
      "type": "function"
    }
  ],
  "bytecode": "0x608060405260405180602001604052806000815250600990805190602001906200002b92919062000459565b506040518060400160405280600581526020017f2e6a736f6e000000000000000000000000000000000000000000000000000000815250600a90805190602001906200007992919062000459565b50612710600b556702c68af0bb140000600d553480156200009957600080fd5b50733cc6cdda760b79bafa08df41ecfa224f810dceb660016040518060400160405280601681526020017f50616e64612043726577204d696e696e6720436c7562000000000000000000008152506040518060400160405280600481526020017f50434d43000000000000000000000000000000000000000000000000000000008152506200013d620001316200038460201b60201c565b6200038c60201b60201c565b81600390805190602001906200015592919062000459565b5080600490805190602001906200016e92919062000459565b506200017f6200045060201b60201c565b600181905550505060006daaeb6d7670e522a718067333cd4e73ffffffffffffffffffffffffffffffffffffffff163b11156200037c57801562000242576daaeb6d7670e522a718067333cd4e73ffffffffffffffffffffffffffffffffffffffff16637d3e3dbe30846040518363ffffffff1660e01b8152600401620002089291906200054e565b600060405180830381600087803b1580156200022357600080fd5b505af115801562000238573d6000803e3d6000fd5b505050506200037b565b600073ffffffffffffffffffffffffffffffffffffffff168273ffffffffffffffffffffffffffffffffffffffff1614620002fc576daaeb6d7670e522a718067333cd4e73ffffffffffffffffffffffffffffffffffffffff1663a0af290330846040518363ffffffff1660e01b8152600401620002c29291906200054e565b600060405180830381600087803b158015620002dd57600080fd5b505af1158015620002f2573d6000803e3d6000fd5b505050506200037a565b6daaeb6d7670e522a718067333cd4e73ffffffffffffffffffffffffffffffffffffffff16634420e486306040518263ffffffff1660e01b81526004016200034591906200057b565b600060405180830381600087803b1580156200036057600080fd5b505af115801562000375573d6000803e3d6000fd5b505050505b5b5b5050620005fc565b600033905090565b60008060009054906101000a900473ffffffffffffffffffffffffffffffffffffffff169050816000806101000a81548173ffffffffffffffffffffffffffffffffffffffff021916908373ffffffffffffffffffffffffffffffffffffffff1602179055508173ffffffffffffffffffffffffffffffffffffffff168173ffffffffffffffffffffffffffffffffffffffff167f8be0079c531659141344cd1fd0a4f28419497f9722a3daafe3b4186f6b6457e060405160405180910390a35050565b60006001905090565b8280546200046790620005c7565b90600052602060002090601f0160209004810192826200048b5760008555620004d7565b82601f10620004a657805160ff1916838001178555620004d7565b82800160010185558215620004d7579182015b82811115620004d6578251825591602001919060010190620004b9565b5b509050620004e69190620004ea565b5090565b5b8082111562000505576000816000905550600101620004eb565b5090565b600073ffffffffffffffffffffffffffffffffffffffff82169050919050565b6000620005368262000509565b9050919050565b620005488162000529565b82525050565b60006040820190506200056560008301856200053d565b6200057460208301846200053d565b9392505050565b60006020820190506200059260008301846200053d565b92915050565b7f4e487b7100000000000000000000000000000000000000000000000000000000600052602260045260246000fd5b60006002820490506001821680620005e057607f821691505b602082108103620005f657620005f562000598565b5b50919050565b61325d806200060c6000396000f3fe6080604052600436106101e35760003560e01c80638ba4cc3c11610102578063b88d4fde11610095578063e0a8085311610064578063e0a80853146106af578063e985e9c5146106d8578063f2fde38b14610715578063f46a04eb1461073e576101e3565b8063b88d4fde146105f3578063c87b56dd1461061c578063d123973014610659578063d547cfb714610684576101e3565b806398d5fdca116100d157806398d5fdca14610558578063a035b1fe14610583578063a0712d68146105ae578063a22cb465146105ca576101e3565b80638ba4cc3c146104b05780638da5cb5b146104d957806391b7f5ed1461050457806395d89b411461052d576101e3565b8063518302271161017a5780636f8b44b0116101495780636f8b44b01461040857806370a0823114610431578063715018a61461046e5780638a333b5014610485576101e3565b8063518302271461034a5780635503a0e81461037557806362b99ad4146103a05780636352211e146103cb576101e3565b806318160ddd116101b657806318160ddd146102b657806323b872dd146102e15780633ccfd60b1461030a57806342842e0e14610321576101e3565b806301ffc9a7146101e857806306fdde0314610225578063081812fc14610250578063095ea7b31461028d575b600080fd5b3480156101f457600080fd5b5061020f600480360381019061020a9190612566565b610767565b60405161021c91906125ae565b60405180910390f35b34801561023157600080fd5b5061023a6107f9565b6040516102479190612662565b60405180910390f35b34801561025c57600080fd5b50610277600480360381019061027291906126ba565b61088b565b6040516102849190612728565b60405180910390f35b34801561029957600080fd5b506102b460048036038101906102af919061276f565b61090a565b005b3480156102c257600080fd5b506102cb610a4e565b6040516102d891906127be565b60405180910390f35b3480156102ed57600080fd5b50610308600480360381019061030391906127d9565b610a65565b005b34801561031657600080fd5b5061031f610c47565b005b34801561032d57600080fd5b50610348600480360381019061034391906127d9565b610c98565b005b34801561035657600080fd5b5061035f610e7a565b60405161036c91906125ae565b60405180910390f35b34801561038157600080fd5b5061038a610e8d565b6040516103979190612662565b60405180910390f35b3480156103ac57600080fd5b506103b5610f1b565b6040516103c29190612662565b60405180910390f35b3480156103d757600080fd5b506103f260048036038101906103ed91906126ba565b610fa9565b6040516103ff9190612728565b60405180910390f35b34801561041457600080fd5b5061042f600480360381019061042a91906126ba565b610fbb565b005b34801561043d57600080fd5b506104586004803603810190610453919061282c565b610fcd565b60405161046591906127be565b60405180910390f35b34801561047a57600080fd5b50610483611085565b005b34801561049157600080fd5b5061049a611099565b6040516104a791906127be565b60405180910390f35b3480156104bc57600080fd5b506104d760048036038101906104d2919061276f565b61109f565b005b3480156104e557600080fd5b506104ee6110b5565b6040516104fb9190612728565b60405180910390f35b34801561051057600080fd5b5061052b600480360381019061052691906126ba565b6110de565b005b34801561053957600080fd5b506105426110f0565b60405161054f9190612662565b60405180910390f35b34801561056457600080fd5b5061056d611182565b60405161057a91906127be565b60405180910390f35b34801561058f57600080fd5b5061059861118c565b6040516105a591906127be565b60405180910390f35b6105c860048036038101906105c391906126ba565b611192565b005b3480156105d657600080fd5b506105f160048036038101906105ec9190612885565b6112d0565b005b3480156105ff57600080fd5b5061061a600480360381019061061591906129fa565b611447565b005b34801561062857600080fd5b50610643600480360381019061063e91906126ba565b61162c565b6040516106509190612662565b60405180910390f35b34801561066557600080fd5b5061066e6116d6565b60405161067b91906125ae565b60405180910390f35b34801561069057600080fd5b506106996116e9565b6040516106a69190612662565b60405180910390f35b3480156106bb57600080fd5b506106d660048036038101906106d19190612a7d565b6116f8565b005b3480156106e457600080fd5b506106ff60048036038101906106fa9190612aaa565b61171d565b60405161070c91906125ae565b60405180910390f35b34801561072157600080fd5b5061073c6004803603810190610737919061282c565b6117b1565b005b34801561074a57600080fd5b5061076560048036038101906107609190612a7d565b611834565b005b60006301ffc9a760e01b827bffffffffffffffffffffffffffffffffffffffffffffffffffffffff191614806107c257506380ac58cd60e01b827bffffffffffffffffffffffffffffffffffffffffffffffffffffffff1916145b806107f25750635b5e139f60e01b827bffffffffffffffffffffffffffffffffffffffffffffffffffffffff1916145b9050919050565b60606003805461080890612b19565b80601f016020809104026020016040519081016040528092919081815260200182805461083490612b19565b80156108815780601f1061085657610100808354040283529160200191610881565b820191906000526020600020905b81548152906001019060200180831161086457829003601f168201915b5050505050905090565b600061089682611859565b6108cc576040517fcf4700e400000000000000000000000000000000000000000000000000000000815260040160405180910390fd5b6007600083815260200190815260200160002060000160009054906101000a900473ffffffffffffffffffffffffffffffffffffffff169050919050565b600061091582610fa9565b90508073ffffffffffffffffffffffffffffffffffffffff166109366118b8565b73ffffffffffffffffffffffffffffffffffffffff1614610999576109628161095d6118b8565b61171d565b610998576040517fcfb3b94200000000000000000000000000000000000000000000000000000000815260040160405180910390fd5b5b826007600084815260200190815260200160002060000160006101000a81548173ffffffffffffffffffffffffffffffffffffffff021916908373ffffffffffffffffffffffffffffffffffffffff160217905550818373ffffffffffffffffffffffffffffffffffffffff168273ffffffffffffffffffffffffffffffffffffffff167f8c5be1e5ebec7d5bd14f71427d1e84f3dd0314c0f7b2291e5b200ac8c7c3b92560405160405180910390a4505050565b6000610a586118c0565b6002546001540303905090565b8260006daaeb6d7670e522a718067333cd4e73ffffffffffffffffffffffffffffffffffffffff163b1115610c35573373ffffffffffffffffffffffffffffffffffffffff168173ffffffffffffffffffffffffffffffffffffffff1603610ad757610ad28484846118c9565b610c41565b6daaeb6d7670e522a718067333cd4e73ffffffffffffffffffffffffffffffffffffffff1663c617113430336040518363ffffffff1660e01b8152600401610b20929190612b4a565b602060405180830381865afa158015610b3d573d6000803e3d6000fd5b505050506040513d601f19601f82011682018060405250810190610b619190612b88565b8015610bf357506daaeb6d7670e522a718067333cd4e73ffffffffffffffffffffffffffffffffffffffff1663c617113430836040518363ffffffff1660e01b8152600401610bb1929190612b4a565b602060405180830381865afa158015610bce573d6000803e3d6000fd5b505050506040513d601f19601f82011682018060405250810190610bf29190612b88565b5b610c3457336040517fede71dcc000000000000000000000000000000000000000000000000000000008152600401610c2b9190612728565b60405180910390fd5b5b610c408484846118c9565b5b50505050565b610c4f611beb565b3373ffffffffffffffffffffffffffffffffffffffff166108fc479081150290604051600060405180830381858888f19350505050158015610c95573d6000803e3d6000fd5b50565b8260006daaeb6d7670e522a718067333cd4e73ffffffffffffffffffffffffffffffffffffffff163b1115610e68573373ffffffffffffffffffffffffffffffffffffffff168173ffffffffffffffffffffffffffffffffffffffff1603610d0a57610d05848484611c69565b610e74565b6daaeb6d7670e522a718067333cd4e73ffffffffffffffffffffffffffffffffffffffff1663c617113430336040518363ffffffff1660e01b8152600401610d53929190612b4a565b602060405180830381865afa158015610d70573d6000803e3d6000fd5b505050506040513d601f19601f82011682018060405250810190610d949190612b88565b8015610e2657506daaeb6d7670e522a718067333cd4e73ffffffffffffffffffffffffffffffffffffffff1663c617113430836040518363ffffffff1660e01b8152600401610de4929190612b4a565b602060405180830381865afa158015610e01573d6000803e3d6000fd5b505050506040513d601f19601f82011682018060405250810190610e259190612b88565b5b610e6757336040517fede71dcc000000000000000000000000000000000000000000000000000000008152600401610e5e9190612728565b60405180910390fd5b5b610e73848484611c69565b5b50505050565b600e60009054906101000a900460ff1681565b600a8054610e9a90612b19565b80601f0160208091040260200160405190810160405280929190818152602001828054610ec690612b19565b8015610f135780601f10610ee857610100808354040283529160200191610f13565b820191906000526020600020905b815481529060010190602001808311610ef657829003601f168201915b505050505081565b60098054610f2890612b19565b80601f0160208091040260200160405190810160405280929190818152602001828054610f5490612b19565b8015610fa15780601f10610f7657610100808354040283529160200191610fa1565b820191906000526020600020905b815481529060010190602001808311610f8457829003601f168201915b505050505081565b6000610fb482611c89565b9050919050565b610fc3611beb565b80600b8190555050565b60008073ffffffffffffffffffffffffffffffffffffffff168273ffffffffffffffffffffffffffffffffffffffff1603611034576040517f8f4eb60400000000000000000000000000000000000000000000000000000000815260040160405180910390fd5b67ffffffffffffffff600660008473ffffffffffffffffffffffffffffffffffffffff1673ffffffffffffffffffffffffffffffffffffffff16815260200190815260200160002054169050919050565b61108d611beb565b6110976000611d55565b565b600b5481565b6110a7611beb565b6110b18282611e19565b5050565b60008060009054906101000a900473ffffffffffffffffffffffffffffffffffffffff16905090565b6110e6611beb565b80600d8190555050565b6060600480546110ff90612b19565b80601f016020809104026020016040519081016040528092919081815260200182805461112b90612b19565b80156111785780601f1061114d57610100808354040283529160200191611178565b820191906000526020600020905b81548152906001019060200180831161115b57829003601f168201915b5050505050905090565b6000600d54905090565b600d5481565b600c60009054906101000a900460ff166111e1576040517f08c379a00000000000000000000000000000000000000000000000000000000081526004016111d890612c01565b60405180910390fd5b600b54816111ed610a4e565b6111f79190612c50565b10611237576040517f08c379a000000000000000000000000000000000000000000000000000000000815260040161122e90612cf2565b60405180910390fd5b80611240611182565b61124a9190612d12565b34101561128c576040517f08c379a000000000000000000000000000000000000000000000000000000000815260040161128390612dde565b60405180910390fd5b6112963382611e19565b7ff5535ccd9f40eb4bc73fac8710dbb2effbf3329da83f62b35d9aa88161bb85ca336040516112c59190612728565b60405180910390a150565b6112d86118b8565b73ffffffffffffffffffffffffffffffffffffffff168273ffffffffffffffffffffffffffffffffffffffff160361133c576040517fb06307db00000000000000000000000000000000000000000000000000000000815260040160405180910390fd5b80600860006113496118b8565b73ffffffffffffffffffffffffffffffffffffffff1673ffffffffffffffffffffffffffffffffffffffff16815260200190815260200160002060008473ffffffffffffffffffffffffffffffffffffffff1673ffffffffffffffffffffffffffffffffffffffff16815260200190815260200160002060006101000a81548160ff0219169083151502179055508173ffffffffffffffffffffffffffffffffffffffff166113f66118b8565b73ffffffffffffffffffffffffffffffffffffffff167f17307eab39ab6107e8899845ad3d59bd9653f200f220920489ca2b5937696c318360405161143b91906125ae565b60405180910390a35050565b8360006daaeb6d7670e522a718067333cd4e73ffffffffffffffffffffffffffffffffffffffff163b1115611618573373ffffffffffffffffffffffffffffffffffffffff168173ffffffffffffffffffffffffffffffffffffffff16036114ba576114b585858585611fd5565b611625565b6daaeb6d7670e522a718067333cd4e73ffffffffffffffffffffffffffffffffffffffff1663c617113430336040518363ffffffff1660e01b8152600401611503929190612b4a565b602060405180830381865afa158015611520573d6000803e3d6000fd5b505050506040513d601f19601f820116820180604052508101906115449190612b88565b80156115d657506daaeb6d7670e522a718067333cd4e73ffffffffffffffffffffffffffffffffffffffff1663c617113430836040518363ffffffff1660e01b8152600401611594929190612b4a565b602060405180830381865afa1580156115b1573d6000803e3d6000fd5b505050506040513d601f19601f820116820180604052508101906115d59190612b88565b5b61161757336040517fede71dcc00000000000000000000000000000000000000000000000000000000815260040161160e9190612728565b60405180910390fd5b5b61162485858585611fd5565b5b5050505050565b606061163782611859565b611676576040517f08c379a000000000000000000000000000000000000000000000000000000000815260040161166d90612e70565b60405180910390fd5b6000611680612048565b905060008151116116a057604051806020016040528060008152506116ce565b806116aa8461209e565b600a6040516020016116be93929190612f60565b6040516020818303038152906040525b915050919050565b600c60009054906101000a900460ff1681565b60606116f3612048565b905090565b611700611beb565b80600e60006101000a81548160ff02191690831515021790555050565b6000600860008473ffffffffffffffffffffffffffffffffffffffff1673ffffffffffffffffffffffffffffffffffffffff16815260200190815260200160002060008373ffffffffffffffffffffffffffffffffffffffff1673ffffffffffffffffffffffffffffffffffffffff16815260200190815260200160002060009054906101000a900460ff16905092915050565b6117b9611beb565b600073ffffffffffffffffffffffffffffffffffffffff168173ffffffffffffffffffffffffffffffffffffffff1603611828576040517f08c379a000000000000000000000000000000000000000000000000000000000815260040161181f90613003565b60405180910390fd5b61183181611d55565b50565b61183c611beb565b80600c60006101000a81548160ff02191690831515021790555050565b6000816118646118c0565b11158015611873575060015482105b80156118b1575060007c0100000000000000000000000000000000000000000000000000000000600560008581526020019081526020016000205416145b9050919050565b600033905090565b60006001905090565b60006118d482611c89565b90508373ffffffffffffffffffffffffffffffffffffffff168173ffffffffffffffffffffffffffffffffffffffff161461193b576040517fa114810000000000000000000000000000000000000000000000000000000000815260040160405180910390fd5b6000806119478461216c565b9150915061195d81876119586118b8565b612193565b6119a9576119728661196d6118b8565b61171d565b6119a8576040517f59c896be00000000000000000000000000000000000000000000000000000000815260040160405180910390fd5b5b600073ffffffffffffffffffffffffffffffffffffffff168573ffffffffffffffffffffffffffffffffffffffff1603611a0f576040517fea553b3400000000000000000000000000000000000000000000000000000000815260040160405180910390fd5b611a1c86868660016121d7565b8015611a2757600082555b600660008773ffffffffffffffffffffffffffffffffffffffff1673ffffffffffffffffffffffffffffffffffffffff168152602001908152602001600020600081546001900391905081905550600660008673ffffffffffffffffffffffffffffffffffffffff1673ffffffffffffffffffffffffffffffffffffffff1681526020019081526020016000206000815460010191905081905550611af585611ad18888876121dd565b7c020000000000000000000000000000000000000000000000000000000017612205565b600560008681526020019081526020016000208190555060007c0200000000000000000000000000000000000000000000000000000000841603611b7b5760006001850190506000600560008381526020019081526020016000205403611b79576001548114611b78578360056000838152602001908152602001600020819055505b5b505b838573ffffffffffffffffffffffffffffffffffffffff168773ffffffffffffffffffffffffffffffffffffffff167fddf252ad1be2c89b69c2b068fc378daa952ba7f163c4a11628f55a4df523b3ef60405160405180910390a4611be38686866001612230565b505050505050565b611bf3612236565b73ffffffffffffffffffffffffffffffffffffffff16611c116110b5565b73ffffffffffffffffffffffffffffffffffffffff1614611c67576040517f08c379a0000000000000000000000000000000000000000000000000000000008152600401611c5e9061306f565b60405180910390fd5b565b611c8483838360405180602001604052806000815250611447565b505050565b60008082905080611c986118c0565b11611d1e57600154811015611d1d5760006005600083815260200190815260200160002054905060007c0100000000000000000000000000000000000000000000000000000000821603611d1b575b60008103611d11576005600083600190039350838152602001908152602001600020549050611ce7565b8092505050611d50565b505b5b6040517fdf2d9b4200000000000000000000000000000000000000000000000000000000815260040160405180910390fd5b919050565b60008060009054906101000a900473ffffffffffffffffffffffffffffffffffffffff169050816000806101000a81548173ffffffffffffffffffffffffffffffffffffffff021916908373ffffffffffffffffffffffffffffffffffffffff1602179055508173ffffffffffffffffffffffffffffffffffffffff168173ffffffffffffffffffffffffffffffffffffffff167f8be0079c531659141344cd1fd0a4f28419497f9722a3daafe3b4186f6b6457e060405160405180910390a35050565b6000600154905060008203611e5a576040517fb562e8dd00000000000000000000000000000000000000000000000000000000815260040160405180910390fd5b611e6760008483856121d7565b600160406001901b178202600660008573ffffffffffffffffffffffffffffffffffffffff1673ffffffffffffffffffffffffffffffffffffffff16815260200190815260200160002060008282540192505081905550611ede83611ecf60008660006121dd565b611ed88561223e565b17612205565b6005600083815260200190815260200160002081905550600080838301905073ffffffffffffffffffffffffffffffffffffffff85169150828260007fddf252ad1be2c89b69c2b068fc378daa952ba7f163c4a11628f55a4df523b3ef600080a4600183015b818114611f7f57808360007fddf252ad1be2c89b69c2b068fc378daa952ba7f163c4a11628f55a4df523b3ef600080a4600181019050611f44565b5060008203611fba576040517f2e07630000000000000000000000000000000000000000000000000000000000815260040160405180910390fd5b806001819055505050611fd06000848385612230565b505050565b611fe0848484610a65565b60008373ffffffffffffffffffffffffffffffffffffffff163b146120425761200b8484848461224e565b612041576040517fd1a57ed600000000000000000000000000000000000000000000000000000000815260040160405180910390fd5b5b50505050565b6060600e60009054906101000a900460ff161561207f576040518060800160405280604381526020016131e560439139905061209b565b6040518060800160405280604381526020016131a26043913990505b90565b6060600060016120ad8461239e565b01905060008167ffffffffffffffff8111156120cc576120cb6128cf565b5b6040519080825280601f01601f1916602001820160405280156120fe5781602001600182028036833780820191505090505b509050600082602001820190505b600115612161578080600190039150507f3031323334353637383961626364656600000000000000000000000000000000600a86061a8153600a85816121555761215461308f565b5b0494506000850361210c575b819350505050919050565b60008060006007600085815260200190815260200160002090508092508254915050915091565b600073ffffffffffffffffffffffffffffffffffffffff8316925073ffffffffffffffffffffffffffffffffffffffff821691508382148383141790509392505050565b50505050565b60008060e883901c905060e86121f48686846124f1565b62ffffff16901b9150509392505050565b600073ffffffffffffffffffffffffffffffffffffffff83169250814260a01b178317905092915050565b50505050565b600033905090565b60006001821460e11b9050919050565b60008373ffffffffffffffffffffffffffffffffffffffff1663150b7a026122746118b8565b8786866040518563ffffffff1660e01b81526004016122969493929190613113565b6020604051808303816000875af19250505080156122d257506040513d601f19601f820116820180604052508101906122cf9190613174565b60015b61234b573d8060008114612302576040519150601f19603f3d011682016040523d82523d6000602084013e612307565b606091505b506000815103612343576040517fd1a57ed600000000000000000000000000000000000000000000000000000000815260040160405180910390fd5b805181602001fd5b63150b7a0260e01b7bffffffffffffffffffffffffffffffffffffffffffffffffffffffff1916817bffffffffffffffffffffffffffffffffffffffffffffffffffffffff191614915050949350505050565b600080600090507a184f03e93ff9f4daa797ed6e38ed64bf6a1f01000000000000000083106123fc577a184f03e93ff9f4daa797ed6e38ed64bf6a1f01000000000000000083816123f2576123f161308f565b5b0492506040810190505b6d04ee2d6d415b85acef81000000008310612439576d04ee2d6d415b85acef8100000000838161242f5761242e61308f565b5b0492506020810190505b662386f26fc10000831061246857662386f26fc10000838161245e5761245d61308f565b5b0492506010810190505b6305f5e1008310612491576305f5e10083816124875761248661308f565b5b0492506008810190505b61271083106124b65761271083816124ac576124ab61308f565b5b0492506004810190505b606483106124d957606483816124cf576124ce61308f565b5b0492506002810190505b600a83106124e8576001810190505b80915050919050565b60009392505050565b6000604051905090565b600080fd5b600080fd5b60007fffffffff0000000000000000000000000000000000000000000000000000000082169050919050565b6125438161250e565b811461254e57600080fd5b50565b6000813590506125608161253a565b92915050565b60006020828403121561257c5761257b612504565b5b600061258a84828501612551565b91505092915050565b60008115159050919050565b6125a881612593565b82525050565b60006020820190506125c3600083018461259f565b92915050565b600081519050919050565b600082825260208201905092915050565b60005b838110156126035780820151818401526020810190506125e8565b83811115612612576000848401525b50505050565b6000601f19601f8301169050919050565b6000612634826125c9565b61263e81856125d4565b935061264e8185602086016125e5565b61265781612618565b840191505092915050565b6000602082019050818103600083015261267c8184612629565b905092915050565b6000819050919050565b61269781612684565b81146126a257600080fd5b50565b6000813590506126b48161268e565b92915050565b6000602082840312156126d0576126cf612504565b5b60006126de848285016126a5565b91505092915050565b600073ffffffffffffffffffffffffffffffffffffffff82169050919050565b6000612712826126e7565b9050919050565b61272281612707565b82525050565b600060208201905061273d6000830184612719565b92915050565b61274c81612707565b811461275757600080fd5b50565b60008135905061276981612743565b92915050565b6000806040838503121561278657612785612504565b5b60006127948582860161275a565b92505060206127a5858286016126a5565b9150509250929050565b6127b881612684565b82525050565b60006020820190506127d360008301846127af565b92915050565b6000806000606084860312156127f2576127f1612504565b5b60006128008682870161275a565b93505060206128118682870161275a565b9250506040612822868287016126a5565b9150509250925092565b60006020828403121561284257612841612504565b5b60006128508482850161275a565b91505092915050565b61286281612593565b811461286d57600080fd5b50565b60008135905061287f81612859565b92915050565b6000806040838503121561289c5761289b612504565b5b60006128aa8582860161275a565b92505060206128bb85828601612870565b9150509250929050565b600080fd5b600080fd5b7f4e487b7100000000000000000000000000000000000000000000000000000000600052604160045260246000fd5b61290782612618565b810181811067ffffffffffffffff82111715612926576129256128cf565b5b80604052505050565b60006129396124fa565b905061294582826128fe565b919050565b600067ffffffffffffffff821115612965576129646128cf565b5b61296e82612618565b9050602081019050919050565b82818337600083830152505050565b600061299d6129988461294a565b61292f565b9050828152602081018484840111156129b9576129b86128ca565b5b6129c484828561297b565b509392505050565b600082601f8301126129e1576129e06128c5565b5b81356129f184826020860161298a565b91505092915050565b60008060008060808587031215612a1457612a13612504565b5b6000612a228782880161275a565b9450506020612a338782880161275a565b9350506040612a44878288016126a5565b925050606085013567ffffffffffffffff811115612a6557612a64612509565b5b612a71878288016129cc565b91505092959194509250565b600060208284031215612a9357612a92612504565b5b6000612aa184828501612870565b91505092915050565b60008060408385031215612ac157612ac0612504565b5b6000612acf8582860161275a565b9250506020612ae08582860161275a565b9150509250929050565b7f4e487b7100000000000000000000000000000000000000000000000000000000600052602260045260246000fd5b60006002820490506001821680612b3157607f821691505b602082108103612b4457612b43612aea565b5b50919050565b6000604082019050612b5f6000830185612719565b612b6c6020830184612719565b9392505050565b600081519050612b8281612859565b92915050565b600060208284031215612b9e57612b9d612504565b5b6000612bac84828501612b73565b91505092915050565b7f4d696e74696e67206973206e6f7420656e61626c656400000000000000000000600082015250565b6000612beb6016836125d4565b9150612bf682612bb5565b602082019050919050565b60006020820190508181036000830152612c1a81612bde565b9050919050565b7f4e487b7100000000000000000000000000000000000000000000000000000000600052601160045260246000fd5b6000612c5b82612684565b9150612c6683612684565b9250827fffffffffffffffffffffffffffffffffffffffffffffffffffffffffffffffff03821115612c9b57612c9a612c21565b5b828201905092915050565b7f43616e6e6f74206d696e74206d6f7265207468616e206d617820737570706c79600082015250565b6000612cdc6020836125d4565b9150612ce782612ca6565b602082019050919050565b60006020820190508181036000830152612d0b81612ccf565b9050919050565b6000612d1d82612684565b9150612d2883612684565b9250817fffffffffffffffffffffffffffffffffffffffffffffffffffffffffffffffff0483118215151615612d6157612d60612c21565b5b828202905092915050565b7f4e6f7420656e6f756768204554482073656e743b20636865636b20707269636560008201527f2100000000000000000000000000000000000000000000000000000000000000602082015250565b6000612dc86021836125d4565b9150612dd382612d6c565b604082019050919050565b60006020820190508181036000830152612df781612dbb565b9050919050565b7f4552433732314d657461646174613a2055524920717565727920666f72206e6f60008201527f6e6578697374656e7420746f6b656e0000000000000000000000000000000000602082015250565b6000612e5a602f836125d4565b9150612e6582612dfe565b604082019050919050565b60006020820190508181036000830152612e8981612e4d565b9050919050565b600081905092915050565b6000612ea6826125c9565b612eb08185612e90565b9350612ec08185602086016125e5565b80840191505092915050565b60008190508160005260206000209050919050565b60008154612eee81612b19565b612ef88186612e90565b94506001821660008114612f135760018114612f2457612f57565b60ff19831686528186019350612f57565b612f2d85612ecc565b60005b83811015612f4f57815481890152600182019150602081019050612f30565b838801955050505b50505092915050565b6000612f6c8286612e9b565b9150612f788285612e9b565b9150612f848284612ee1565b9150819050949350505050565b7f4f776e61626c653a206e6577206f776e657220697320746865207a65726f206160008201527f6464726573730000000000000000000000000000000000000000000000000000602082015250565b6000612fed6026836125d4565b9150612ff882612f91565b604082019050919050565b6000602082019050818103600083015261301c81612fe0565b9050919050565b7f4f776e61626c653a2063616c6c6572206973206e6f7420746865206f776e6572600082015250565b60006130596020836125d4565b915061306482613023565b602082019050919050565b600060208201905081810360008301526130888161304c565b9050919050565b7f4e487b7100000000000000000000000000000000000000000000000000000000600052601260045260246000fd5b600081519050919050565b600082825260208201905092915050565b60006130e5826130be565b6130ef81856130c9565b93506130ff8185602086016125e5565b61310881612618565b840191505092915050565b60006080820190506131286000830187612719565b6131356020830186612719565b61314260408301856127af565b818103606083015261315481846130da565b905095945050505050565b60008151905061316e8161253a565b92915050565b60006020828403121561318a57613189612504565b5b60006131988482850161315f565b9150509291505056fe697066733a2f2f626166796265696434653669376379656c656435346166777376753234333575796c786b6668676e6b637a33656e7a6163796578326a74613362752f697066733a2f2f62616679626569617a6d686b373665686f6776326d666433717a786a37687676636e3264763273627879787635687a353363643464686165726c652fa2646970667358221220ab9ccd39970b2bb9ec9f0ffe4b425adee64e9e2613dc6f548dbf46bc116c82c164736f6c634300080d0033",
  "linkReferences": {},
  "deployedLinkReferences": {}
}